:020000040800F2
:1000000050040020C101000857100008050F000827
:1000100055100008CD0200083F1200080000000043
:100020000000000000000000000000005B1000085D
:10003000CF02000800000000591000085D10000801
:10004000DB010008DB010008DB010008DB01000820
:10005000DB010008DB010008DB010008DB01000810
:10006000E5020008F7020008DB010008DB010008D8
:10007000DB010008DB010008DB010008DB010008F0
:10008000DB010008DB010008DB010008DB010008E0
:10009000DB010008DB010008DB010008DB010008D0
:1000A000DB010008F1100008DB010008DB0100089B
:1000B000DB010008DB010008DB010008DB010008B0
:1000C000DB010008DB010008DB010008DB010008A0
:1000D000DB010008DB010008DB010008DB01000890
:1000E000D1020008DB010008DB010008DB01000889
:1000F000DB010008DB010008DB010008DB01000870
:10010000DB010008DB010008DB010008DB0100085F
:10011000DB010008DB010008DB010008DB0100084F
:10012000DB010008DB010008DB010008DB0100083F
:10013000DB010008DB010008DB010008DB0100082F
:10014000DB010008DB010008DB010008DB0100081F
:10015000DB010008DB010008DB010008DB0100080F
:10016000DB010008DB010008DB010008DB010008FF
:10017000DB010008DB010008DB01000800000000D3
:10018000DB010008DB010008DB010008DB010008DF
:10019000DB010008DB010008DB010008DB010008CF
:1001A000DB010008DB010008DB010008DFF80CD0F0
:1001B00000F07AF800480047B5120008500400200B
:1001C0000648804706480047FEE7FEE7FEE7FEE7F1
:1001D000FEE7FEE7FEE7FEE7FEE7FEE7D5100008D4
:1001E000AD0100082DE9F05F0546002092469B46D0
:1001F00088460646814640241BE02846414647463D
:10020000224600F041F853465A46C01A914110D395
:1002100011461846224600F028F82D1A67EB01080F
:100220004F4622460120002100F01FF817EB00097D
:100230004E41201EA4F10104DFDC484631462A4627
:100240004346BDE8F09FD2B201E000F8012B491E01
:10025000FBD270470022F6E710B513460A46044663
:100260001946FFF7F0FF204610BD202A04DB203A94
:1002700000FA02F1002070479140C2F1200320FAF9
:1002800003F3194390407047202A04DB203A21FAF7
:1002900002F00021704721FA02F3D040C2F120029F
:1002A0009140084319467047064C074D06E0E06848
:1002B00040F0010394E8070098471034AC42F6D3AD
:1002C000FFF778FFE012000800130008FEE7704710
:1002D00010B5032000F0D4FFBDE810404FF40050EB
:1002E00000F028B810B5012000F0CAFFBDE81040AA
:1002F000042000F01FB810B5022000F0C1FFBDE8D7
:100300001040082000F016B87047000070B5044691
:1003100000F012F90546601C02D00448007804443D
:1003200000F00AF9401BA042FAD370BD0000002083
:1003300070470000044910B50A68024202D0086004
:10034000FFF7F6FF10BD0000143C01402DE9F84F07
:1003500000224FF0010803254FF00F0E0B6808FA3A
:1003600002F42340A3426ED14E68012E05D0022E26
:1003700003D0112E01D0122E12D186684FEA420C02
:1003800005FA0CF7BE43CF6807FA0CF737438760CE
:100390004668A6430C79C4F3001494403443446087
:1003A000C668570005FA07FC8C6826EA0C06BC40B4
:1003B0003443C4604C68022C01D0122C13D1D408F1
:1003C00000EB8404A346D4F8209054074FEAD46A83
:1003D0000EFA0AF629EA06090E6906FA0AF646EA4C
:1003E0000906CBF8206004680E7924EA0C0406F0B4
:1003F0000306BE40264306604C68E4006FD53B4CC4
:10040000266846F480462660246822F0030604F439
:1004100080440094364C3444A446D4F808489607E7
:10042000360F0EFA06F7BC43324FB84201D100270F
:100430002EE0314FB84201D1012729E02F4FB842B9
:1004400002D1022724E04AE02D4FB84201D1032710
:100450001EE02C4FB84201D1042719E02A4FB842C0
:1004600001D1052714E0294FB84201D106270FE03A
:10047000274FB84201D107270AE0264FB84201D1E1
:10048000082705E0244FB84201D1092700E00A27D8
:10049000B7402743CCF80878204E34684F689C4317
:1004A000FF0300D51C4334601C4E361D34684F6872
:1004B0009C43BF0300D51C433460184E0836346893
:1004C0004F689C43FF0200D51C433460134E0C362A
:1004D00034684F689C43BF0200D51C433460521CF3
:1004E000102AFFF43BAFBDE8F88F0000443802400B
:1004F00000300140000002400004024000080240B9
:10050000000C02400010024000140240001802409B
:10051000001C02400020024000240240003C014038
:10052000426931EA020200D10904816170470AB1CF
:10053000816170470904FBE701488068704700004B
:1005400000000020024881680278114481607047F1
:10055000000000200B4810B5016841F400710160F3
:10056000016841F480610160016841F480710160BB
:10057000032000F06FF8002000F006F800F024F8E7
:10058000002010BD003C024070B50D4D04464FF4F4
:100590007A712878B1FBF0F00A490968B1FBF0F0F4
:1005A00000F0E4FA48B9102C07D200222146501E70
:1005B00000F030F800206C6070BD012070BD0000BC
:1005C000000000200C0000200A4808B5016841F432
:1005D00080410160006800F4804000900548001FE1
:1005E000016841F080510160006800F08050009087
:1005F00008BD000044380240002809DB00F01F025B
:10060000012191404009800000F1E020C0F8001174
:1006100070470000F0B40E4B1B680C46C3F3022376
:10062000C3F10705042D00D90425191D072901D29E
:10063000002300E0DB1E012606FA05F1491E2140D9
:1006400099409E40761E16403143F0BC00F0F8BD44
:100650000CED00E0064900F0070208684FF6FF03C2
:10066000184040EA0220034A104308607047000027
:100670000CED00E00000FA052DE9F0470E460500FC
:1006800065D0DFF81481D8F80000F7B200F00F0051
:10069000B04207D288F80070D8F8000000F00F00D0
:1006A000B04254D128683D4C810712D5400703D58C
:1006B000206840F4E05020602878000703D52068C7
:1006C00040F4604020602068A96820F0F0000843F2
:1006D00020602878C0072DD0304968680839012883
:1006E00012D0022813D0032811D0096889070029E5
:1006F0002DDA216821F0030101432160FFF71CFF7F
:10070000814641F2883A0EE009688903EFE70968FB
:100710008901ECE7FFF710FFA0EB0901514502D971
:100720000320BDE8F0872068696800F00C00B0EB9A
:10073000810FEFD1D8F80010404601F00F01B1420F
:1007400007D90770006800F00F00B04201D0012007
:10075000E7E72878400705D52068E96820F4E050ED
:10076000084320602878000706D52068296920F40E
:10077000604040EAC100206000F018F82168084A93
:10078000C1F30311515CC84006490860064800687F
:10079000FFF7FAFE0020C4E7003C024008380240A0
:1007A000D01200080C00002004000020154810B5ED
:1007B000006810F00C02144813D01449042A0FD01A
:1007C000082A0ED10F4C241F2268236802F03F0232
:1007D0005B0207D52068C0F38810A0FB010106E08A
:1007E000084610BD2168C1F38811A1FB0001002358
:1007F000FFF7F8FC2168C1F30141491C4900B0FB37
:10080000F1F010BD083802400024F40040787D016A
:100810002DE9F84F04006ED02078DFF83C93C00734
:10082000A9F104054AD009F104000168C1F381016E
:10083000012908D00068C0F3810002280AD1D9F844
:100840000000400206D52868800337D5606800287C
:10085000E1D033E06068B0F5803F10D0B0F5A02F54
:10086000286810D020F480302860286820F4802088
:1008700028606068A8B1FFF75FFE06460DE02868B3
:1008800040F48030F4E740F480202860F7E700BFB0
:10089000FFF752FE801B642873D828688003F7D5C1
:1008A0000CE0FFF749FE064605E000BFFFF744FEF7
:1008B000801B6428F0D828688003F7D42078DFF8FC
:1008C0009C8280074FF0000A3ED5A348001D0168B6
:1008D00011F00C0F08D00068C0F3810002280BD182
:1008E000D9F80000400207D42868800716D5E068D0
:1008F000012800D112E02BE1E068B8B10120C8F86E
:100900000000FFF719FE064605E000BFFFF714FEE2
:10091000801B0228C0D828688007F7D5286821697D
:1009200020F0F80040EAC10028600DE0C8F800A0FF
:10093000FFF702FE064604E0FFF7FEFD801B0228DB
:100940001FD828688007F7D42078000722D5824E68
:1009500083486169703671B101210160FFF7ECFDD8
:10096000074604E0FFF7E8FDC01B022809D83068FD
:100970008007F7D50EE0C0F800A0FFF7DDFD0746C1
:1009800005E082E0FFF7D8FDC01B02287DD8306863
:100990008007F7D42078400768D5DFF8BCB100277E
:1009A0000BF13C0BDBF80000C0000BD4DBF80010AF
:1009B00041F08051CBF80010DBF80000012700F077
:1009C00080500090674E3068C00510D4306840F405
:1009D00080703060FFF7B0FD009005E0FFF7ACFDE0
:1009E0000099401A022850D83068C005F6D55A4EF2
:1009F000A0686C3601280FD00528306810D020F090
:100A000001003060306820F004003060A068B8B1A8
:100A1000FFF792FD00900FE0306840F00100F4E72E
:100A200040F004003060F7E7FFF786FD0099411AB7
:100A300041F28830814266D830688007F4D50EE0F4
:100A4000FFF77AFD009007E0FFF776FD0099411A65
:100A500041F28830814256D830688007F4D42FB1F3
:100A6000DBF8001021F08051CBF80010A069C8B36A
:100A70003949091D0968C1F3810102294AD00228B8
:100A8000504607D0C8F8600000E03CE0FFF754FD96
:100A900004463BE04746C8F86000FFF74DFD0646B8
:100AA00005E000BFFFF748FD801B02282BD828680F
:100AB0008001F7D4D4E907010843A16A2A4A49080A
:100AC00002EB0141626A41EA8211084394F82C105A
:100AD00040EA0161C9F8001001203866FFF72CFDDB
:100AE000044606E036E000BFFFF726FD001B0228A3
:100AF00009D828688001F7D52CE000BFFFF71CFD5E
:100B0000001B022802D90320BDE8F88F2868800165
:100B1000F4D41FE00128F7D0D9F80000E26900F40E
:100B20008001914214D1226A00F03F0191420FD11D
:100B300047F6C071626A0140914209D1A26A00F48D
:100B40004031914204D1E16A00F07060884201D0E6
:100B50000120D9E70020D7E70438024000004742CF
:100B6000800E4742007000400000FFFF10B5401E9D
:100B7000B0F1807F01D3012010BD4FF0E02460610F
:100B80000F21601700F05CFB0020A06107202061AE
:100B9000002010BD7047704770B590F83C20012AC6
:100BA00032D0012480F83C40022280F83D200368C6
:100BB0005A689D6822F070060A6832435A60134BE7
:100BC00002689A4214D0B2F1804F11D0104B9A4271
:100BD0000ED0104B9A420BD00F4B9A4208D00F4BBD
:100BE0009A4205D00E4B9A4202D00E4B9A4204D143
:100BF000496825F080031943916080F83D40002149
:100C000080F83C10084670BD022070BD0000014015
:100C10000004004000080040000C004000040140B7
:100C2000004001400018004010B5040003D094F8C3
:100C30003D0010B107E0012010BD002084F83C0009
:100C4000204600F00DF8022084F83D00211D2068A8
:100C500000F05CFA012084F83D00002010BD000087
:100C600008B500680B49884212D10B48016841F071
:100C7000010101600068002200F0010000901146AF
:100C80001920FFF7C7FCBDE808401920FFF7B4BCE6
:100C900008BD000000000140443802400168CA68F5
:100CA00042F00102CA600068816801F0070106296C
:100CB00003D0016841F0010101600020704770B568
:100CC000044690F83C00012817D0012584F83C50D8
:100CD000022084F83D002068826822F0770222F426
:100CE0007F4282600868502830D00DDC20284DD02B
:100CF00005DC98B310283BD148E0022070BD3028B5
:100D000044D0402834D139E0602828D0702806D05B
:100D1000B0F5805F2CD0B0F5005F29D10AE0CB6838
:100D2000D1E90121206800F055FA2068816841F07E
:100D3000770109E0CB68D1E90121206800F04AFA87
:100D40002068816841F48041816011E0CA68496887
:100D5000206800F051FA5021206807E016E0CA68C8
:100D60004968206800F059FA6021206800F03CFAD8
:100D700084F83D50002084F83C0070BDCA68496882
:100D8000206800F039FA40212068EFE72268014628
:100D90001046EBE7704770B50446006801694FF0F4
:100DA0000005C943890715D4C168C943890711D40F
:100DB000E91E0161012020772068806980072046B4
:100DC00002D0FFF7E7FF04E000F098F8204600F0BB
:100DD00096F8257720680169C943490717D4C16887
:100DE000C943490713D46FF0040101610220207741
:100DF0002068806910F4407F204602D0FFF7CAFFC8
:100E000004E000F07BF8204600F079F825772068B0
:100E10000169C943090716D4C168C943090712D437
:100E20006FF008010161042020772068C069800705
:100E3000204602D0FFF7AEFF04E000F05FF8204646
:100E400000F05DF8257720680169C943C90617D409
:100E5000C168C943C90613D46FF0100101610820AD
:100E600020772068C06910F4407F204602D0FFF749
:100E700091FF04E000F042F8204600F040F82577AA
:100E800020680169C943C90708D1C168C943C907B6
:100E900004D1891E0161204600F032F82068016902
:100EA000C943090609D4C168C943090605D46FF0CE
:100EB000800101612046FFF76DFE20680169C9438A
:100EC000490609D4C168C943490605D46FF04001F9
:100ED0000161204600F015F820680169C9438906C0
:100EE0000BD4C168C943890607D46FF020010161A2
:100EF0002046BDE87040FFF74EBE70BD704770479A
:100F000070477047FEE70000F0B587B014216846CF
:100F1000FFF7A0F930480025016841F004010160A5
:100F2000016801F004010591016841F08001016050
:100F3000016801F080010591016841F00201016042
:100F4000016801F002010591016841F001010160B1
:100F50000068224F00F0010001220590114638463A
:100F6000FFF7E5FA002202213846FFF7E0FA1C4EAF
:100F70004FF40050CDE90006012469460294194857
:100F8000FFF7E4F90C20CDE9000669460294164803
:100F9000FFF7DCF903208DE83100694638460395F8
:100FA000FFF7D4F9002201210820FFF733FB0820C6
:100FB000FFF722FB002201210920FFF72BFB09206C
:100FC000FFF71AFB002201212820FFF723FB28202E
:100FD000FFF712FB07B0F0BD3038024000040240BA
:100FE0000000211000080240001C024010B586B02D
:100FF0000024174800940194029403940494134924
:101000000594016043F67F61C0E901140911C0E94C
:10101000031444618461FFF707FE08B1FFF774F918
:101020004FF48050009069460948FFF748FE08B128
:10103000FFF76AF9049404A905480594FFF7ACFD8D
:10104000002801D0FFF760F906B010BD0000014094
:1010500010000020FEE7704770477047FFF772BA34
:1010600010B592B030216846FFF7F4F814210CA8AF
:10107000FFF7F0F815480024016841F08051016045
:10108000006800F0805011901148016821F440413F
:1010900041F4804101600068069400F440401190E2
:1010A0000220009001200390102004906846FFF772
:1010B000AFFB0F20CDE90C040E940F9400210CA877
:1010C0001094FFF7D9FA12B010BD0000403802406A
:1010D000007000400548016841F470010160034957
:1010E0004FF00060803908607047000088ED00E034
:1010F00010B502210348FFF713FABDE8104002487B
:10110000FFF749BE0004024010000020F0B502685D
:10111000254C264D264E274F274B4FF0804CA042A2
:1011200009D0604507D0A84205D0B04203D0B842EC
:1011300001D0984204D122F0700E4A6842EA0E02B1
:10114000A0421BD0604519D0A84217D0B04215D09C
:10115000B84213D0984211D0184DA8420ED0184D65
:10116000A8420BD0174DA84208D0174DA84205D071
:10117000164DA84202D0164DA84203D122F4407564
:10118000CA682A434D6922F080022A4302608A68B5
:10119000C2620A688262A04201D0984201D1096904
:1011A000016301214161F0BD0000014000040040E5
:1011B00000080040000C00400004014000400140D5
:1011C000004401400048014000180040001C00405D
:1011D0000020004010B5846842EA032224F47F44D2
:1011E0000A432243826010BD826822F070020A43E3
:1011F00042F007018160704710B5036A046A24F069
:1012000001040462846924F0F00444EA021423F027
:101210000A020A438461026210BD10B5036A23F01A
:10122000100303628369046A23F4704343EA0232C1
:1012300024F0A00343EA01118261016210BDFEE7C0
:101240000907090E002804DB00F1E02080F80014F3
:10125000704700F00F0000F1E02080F8141D704787
:1012600002E008C8121F08C1002AFAD1704770476F
:10127000002001E001C1121F002AFBD170470000CD
:1012800070B5054600240A4E0FE001213046FFF7F5
:1012900047F9C820FFF73AF801213046FFF740F937
:1012A000C820FFF733F8641CE4B2AC42EDD370BD44
:1012B00000040240FFF74EF9FFF7D2FEFFF724FECD
:1012C000FFF794FE0148FFF7E9FCFEE7100000205D
:1012D00000000000000000000102030406070809E6
:1012E0000013000800000020100000006012000839
:1012F00010130008100000204004000070120008C5
:101300000100000010000000000000000024F400B4
:04000005080001AD41
:00000001FF
